:100026000909566563746F7220426F6172642044D9
:1000360069676E6F736973202D4A41534D494E2E81
:1000460042485556410D0A412F612E4C45442054D5
:10005600657374696E670D0A422F622E53574954B1
:1000660043482054657374696E670D0A432F632EE7
:100076004C43442054657374696E670D0A442F64BB
:100086002E4B45595041442054657374696E670D73
:100096000A452F652E49324320454550524F4D2083
:1000A60054657374696E670D0A462F662E53504960
:1000B600204144432054657374696E670D0A456E8A
:1000C600746572204F7074696F6E3A2D000D0A0DBB
:1000D6000A506C6561736520436F6E6E6563743A92
:1000E6000D0A4163746976204C6F77204C45445362
:1000F600204F6E2050322E3420546F2050322E372F
:100106002834204C656473290D0A505245535320F8
:10011600456E74657220546F20436865636B000DED
:100126000A54657374696E6720497320537461724B
:10013600742E2E0D0A000D0A416C6C204C4544733A
:100146002041726520576F726B696E672028792F80
:100156006E29203F3F000D0A0D0A4D616B65205345
:100166007572650D0A312E5769726520436F6E6E82
:10017600656374696F6E2049732050726F70657283
:100186000D0A322E416C6C204C45447320416E6F33
:100196006465732053686F756C6420426520436FF5
:1001A6006E6E6563746564205769746820564343B0
:1001B600282B35764443290D0A332E416C6C204C8E
:1001C60045447320436174686F6465732053686F98
:1001D600756C6420426520436F6E6E65637465645A
:1001E60020576974682050322E342D50322E370D28
:1001F6000A505245535320456E74657220546F2041
:100206005465737420416761696E000D0A506C6510
:1002160061736520456E7465722028792F6E2920DA
:100226004F6E6C793A000D0A0D0A4E6F7720436FB8
:100236006E6E6563743A0D0A41637469766520488B
:10024600696768204C454473204F6E2050322E3427
:1002560020746F2050322E372834204C6564732961
:100266000D0A507265737320456E74657220546F63
:1002760020436865636B3A000D0A506C65617365CF
:1002860020507265737320454E544552204F6E6C54
:10029600793A000D0A4C454420576F726B696E67B8
:1002A6002028792F6E29203F3F000A0D0A0D000DE8
:1002B6000A0D0A4D616B6520537572650D0A312E64
:1002C6005769726520436F6E6E656374696F6E2041
:1002D60049732050726F7065720D0A322E4C454478
:1002E6007320416E6F6465732053686F756C64206C
:1002F600426520436F6E6E6563746564205769744A
:10030600682050322E3420746F2050322E370D0A5A
:10031600332E4C454420436174686F6465205368EE
:100326006F756C6420426520436F6E6E65637465FD
:1003360064205769746820564343282B3576290D67
:100346000A505245535320456E74657220546F20EF
:100356005465737420416761696E000D0A506C65BF
:1003660061736520507265737320456E74657220E3
:100376004F6E6C790D0A000D0A0D0A506C6561739B
:100386006520436F6E6E6563743A0D0A5377697420
:10039600636820546F2050322E330D0A4C4544209A
:1003A600546F2050322E3428416374697665204C90
:1003B6006F772050726566657261626C65290D0AF9
:1003C6004E6F7720505245535320537769746368B4
:1003D60020332054696D6528576974682044656C1C
:1003E6006179204F6620302E3520536563290D0A2A
:1003F600000D0A4973204C454420476C6F772057FF
:1004060068656E20537769746368205072657373EC
:1004160065642028792F6E29203F3F000D0A0D0ABA
:10042600000D0A0D0A4D616B6520537572650D0A44
:10043600312E5769726520436F6E6E656374696FFE
:100446006E2049732050726F7065720D0A322E53FA
:100456007769746368205365636F6E6420546572B0
:100466006D696E616C20436F6E6E656374656420A2
:100476005769746820474E440D0A332E4C45442074
:10048600436F6E6E65637465642050726F70726C34
:10049600790D0A4E6F772050524553532053776992
:1004A60074636820332054696D6528576974682021
:1004B60044656C6179204F6620302E352053656384
:1004C600290D0A000D0A506C6561736520456E742E
:1004D60065722028792F6E29204F6E6C79210D0ABE
:1004E600000D0A0D0A506C6561736520436F6E6ED0
:1004F6006563743A0D0A4C43442044302D4437203A
:1005060054302050302D50370D0A525320546F204E
:1005160050322E300D0A525720546F2050322E3151
:100526000D0A454E20546F2050322E320D0A50725D
:1005360065737320456E74657220546F2043686539
:10054600636B000D0A537461727420546573746989
:100556006E672E2E2E0D0A000D0A4973204576650C
:10056600727920576F726473202620506978656C03
:10057600204F66204C434420576F726B696E67208C
:1005860028792F6E29203F3F000D0A0D0A4D616B19
:100596006520537572650D0A312E52532041742021
:1005A60050322E3020436F6E6E6563740D0A322E04
:1005B60052572041742070322E3120436F6E6E6583
:1005C60063740D0A332E454E2041742070322E324C
:1005D60020436F6E6E65637465640D0A342E4C435A
:1005E6004420497320496E20382D426974204D6F8E
:1005F600646520536F0D0A202044302D4437205067
:10060600696E732053686F756C6420426520436F72
:100616006E6E656374656420546F2050302E302DE5
:1006260050302E370D0A352E506F727430204E65BD
:1006360065642050756C6C5F5570205265670D0AB5
:100646002020436F6E6E656374204966204E6F747A
:1006560020436F6E6E65637465640D0A5052455390
:100666005320456E74657220546F20436865636B32
:1006760020416761696E000D0A0D0A436F6E6E6553
:10068600637420347834204B65795061643A000DE8
:100696000A50312E302D50312E3320546F204330E6
:1006A6002D43330D0A50312E342D50312E37205420
:1006B6006F2052302D52330D0A41667465722050F8
:1006C6007265737320416C6C20537769746368207C
:1006D6004C617374205072657373205B345D5B34B8
:1006E6005D2028535731362920546F204578697488
:1006F6000D0A000D0A416C6C2053776974636820FB
:10070600576F726B2050726F70657228792F6E2941
:100716003F3F0D0A000D0A000D0A4D616B655375CA
:1007260072650D0A312E457665727920436F6E6EBD
:10073600656374696F6E2049732050726F706572BD
:100746000D0A322E5072657373205377697463688D
:10075600204F6E65204279204F6E65202877697498
:10076600682064656C6179206F6620302E352073B1
:100776006563290D0A332E416C6C20436F6E6E65DE
:100786006374696F6E20416E6420416761696E20F3
:10079600436F6E6E65637420546F000D0A506C656E
:1007A60061736520456E7465722028792F6E292045
:1007B6004F6E6C7921210D0A0031353944323641AC
:0907C60045333742463438433D07
:0F1C20007BFF7A007926121BF9121C638F1C229E
:101317007BFF7A0079D3021472121C638F1CD2A749
:10132700D2A6D2A5D2A4E51C640D600302146C7B7F
:10133700FF7A017925121BF9E4F51BC3E51B940617
:10134700748094805028B2A47F647E00121B28B258
:10135700A57F647E00121B28B2A67F647E00121B45
:1013670028B2A77F647E00121B28051B80CDD2A759
:10137700D2A6D2A5D2A47BFF7A01793C802B121C7E
:10138700638F1CE51C646E6005E51CB44E097BFF8A
:101397007A01795C021472E51C64796011E51C64BA
:1013A70059600B7BFF7A027911121BF980D07BFF02
:1013B7007A02792C02145B121C638F1CC2A7C2A687
:1013C700C2A5C2A47F647E00121B28E51C640D70B1
:1013D700497BFF7A017925121BF9E4F51BC3E51B4D
:1013E7009406748094805028B2A47F647E00121BF8
:1013F70028B2A57F647E00121B28B2A67F647E00F8
:10140700121B28B2A77F647E00121B28051B80CD04
:10141700C2A7C2A6C2A5C2A480087BFF7A02797EB2
:1014270080327BFF7A0279998036121C638F1CE524
:101437001C64796005E51CB459097BFF7A0279B011
:10144700021BF9E51C644E6005E51CB46E0C7BFFBE
:101457007A0279B5121BF90213BE7BFF7A02791162
:10146700121BF980C57BFF7A037961121BF90213FE
:011477002054
:10190300D2A47BFF7A03797D805CE4F51BC3E51BDE
:10191300940374809480501C20A3FDB2A47FFA7EAC
:1019230000121B2830A3FDB2A47FFA7E00121B28ED
:10193300051B80D97BFF7A0379F78035121C638FEF
:101943001CE51C64796005E51CB459097BFF7A0426
:101953007922021BF9E51C644E6005E51CB46E0B8D
:101963007BFF7A047927121BF9809F7BFF7A047926
:06197300CA121BF980C638
:1019DB007BFF7A0479E78053121C638F1CE51CB4E0
:1019EB000D0E7BFF7A057949121BF91217AF800890
:1019FB007BFF7A03796180337BFF7A05795E121B5B
:101A0B00F9121C638F1CE51C64796005E51CB45945
:101A1B00097BFF7A047922021BF9E51C646E6005D1
:101A2B00E51CB44ED37BFF7A05798F121BF980A886
:10147800E4F508F5097BFF7A06797D02157F7BFF85
:101488007A067995121BF97BFF7A057949121BF9BF
:10149800C296C297C295C294D293D292D291D29058
:1014A800A29282918293829040F6C294D296D29769
:1014B800D295A2918290829282934005E4F50880A9
:1014C80043C295D296D297D294A291829082928268
:1014D800934005750801802CC296D297D295D29474
:1014E800A29182908292829340057508028015C26B
:1014F80097D296D295D294A291829082928293406A
:1015080003750803209005E4F509801320910575FB
:101518000901800B2092057509028003750903E50E
:101528000925E025E024BFF582E43407F583E58248
:101538002508F582E43583F583E493643D7049C258
:1015480098C299F51C7BFF7A0679F98036121C63DC
:101558008F1CE51C64796005E51CB459097BFF7A8A
:1015680007791B021BF9E51C646E6005E51CB44E87
:101578000C7BFF7A07791E121BF90214867BFF7A0F
:101588000779A1121BF980C5A29282918290829359
:1015980050F67FF47E01121B28E50925E025E0249A
:1015A800BFF582E43407F583E5822508F582E43542
:0C15B80083F583E493FF121C5B0214987F
:0D1C2F004C43445F434845434B494E47003A
:081B2000C2A1D2A27F057E00E4
:101B2800D3EF9400EE6480948040257DFAEDD39441
:101B3800007480948040031D80F37DF7EDD39400FA
:101B48007480948040031D80F3EF1F70D31E80D0F3
:011B5800226A
:0A1C48008F80C2A0121B20C2A2224E
:101C0F00C2A27F38121C487F01121C487F0E021C93
:011C1F00487C
:0C1BE3007F30121BEF7F2E121BEF7F30B3
:0A1BEF008F80D2A0121B20C2A22298
:0D000300121C48742F2CF9E4341CFA7BFF0A
:10001000120BA5FF600C121BEF740129F9E43AFAE8
:0300200080EE224D
:1017AF007F0C121C487C0FEC3395E0C3648094804F
:1017BF00401FEC24C0FF121C487BFF7A1C792F12AC
:1017CF0000107F327E00121B287F01121C481C80E4
:1017DF00D67C01ECFF3395E0FEC3EF9411EE6480ED
:1017EF009480505C7F01121C48C374909CFF121CA4
:1017FF0048E4FBC3EC6480F8EB6480985029EBFF5E
:10180F003395E0FEC3EF940DEE648094805015EB9A
:10181F003395E0FE742F2FF582741C3EF583E4930D
:10182F00FF121BEF0B80CCECFF3395E0FEC3EF9460
:10183F000CEE6480948050057FC01200030C8093DF
:10184F007C01ECFF3395E0FEC3EF940DEE648094C2
:10185F008050147F01121C487F801200037F327E5C
:07186F0000121B280C80DBB6
:01187600224F
:041A3B00AB07AA0645
:101A3F00E4F511EB4A7007121BE37F30803FC3EAD6
:101A4F0064809480500CC3E49BFBE49AFA7F2D12C0
:101A5F001BEF7C007D0AAF03AE02120BD08D0D7C05
:101A6F00007D0AAF03AE02120BD0AA06AB078B0C98
:101A7F00E50C2430FF121BEFE50D2430FF121BEF96
:011A8F002234
:0816BA008F0F8E0E8D0D8C0CBC
:1016C200E4F514120B248E158F16AC15AD16EC1220
:1016D2000AEBA804A905AA06AB07AF0FAE0EAD0D23
:1016E200AC0C1207D28F1A8E198D188C17E4FFFEDC
:1016F200FDFCAB0FAA0EA90DA80C120A6D70081200
:101702001BE37F300217ABE5164515602AAE15AF15
:10171200167C007D0A120BD0ED2430FFAE140514A6
:1017220074102EF8A607AE15AF167C007D0A120BB8
:10173200D08E158F1680D0E4FFFE7DC87C42AB1A96
:10174200AA19A918A8171208C7120B248E158F16EA
:10175200AF14EF3395E04F7008051474102FF8762C
:101762003074102514F8762EAE15AF167C007D0A63
:10177200120BD0EF2430FF051474102514F8A607BD
:10178200AE15AF167C007D0A120BD0ED2430FF059A
:101792001474102514F8A607AF10121BEFAF111224
:0C17A2001BEFAF12121BEFAF13121BEF76
:0117AE002218
:031C7E000D0A004C
:101979007F807E25121ADD121C0F121C20EF120C1B
:101989001419B24119B74219BC4319C14419C645C2
:1019990019CB4619B26119B76219BC6319C1641927
:1019A900C66519CB66000019D012131780CC12191D
:1019B9000380C71219DB80C212147880BD1215C4C6
:1019C90080B812112880B37BFF7A1C797E121BF92B
:0219D90080A8E4
:081C5B008F993099FDC2992216
:101ADD00758920759850EF8EF0120C3A1B031C205F
:101AED001B0125801B084B001B0D70801B12E10094
:101AFD0000001B018017758DFC8015758DFD80080C
:101B0D00758DFF800B758DFF4387808003758DFD6F
:031B1D00D28E2243
:081C63003098FDC298AF9922F0
:101BF900120BA56010F5993099FDC299740129F964
:061C0900E43AFA80EB2230
:051C7900D2AFD2AC2245
:03002300021C3C80
:0C1C3C00309804C2988002C299D2023293
:071C6B00D2B2D2B3C2B322D2
:091C5200C2B2C2B3D2B2D2B32275
:031BC800121BA647
:101BCB00C2B2D2B3D2B27F0A7E00121B2820B3045A
:081BDB00C2B2C322C2B2D32240
:101BA6007E07EE3395E0C3648094804014C2B2A8E9
:101BB60006EF088002C313D8FC1392B3D2B21E807C
:011BC600E13D
:011BC70022FB
:101B5900E4FF7E07EE3395E0C3648094804017D29A
:101B6900B230B30DA8067401088002C333D8FC4211
:061B790007C2B21E80DE6F
:011B7F002243
:071C7200C2B2D2B3D2B222CC
:041B80008D0A8B0B34
:101B8400121C6B121BC89203200314AF0A121BC849
:101B9400920320030AAF0B121BA6121BCB92030263
:021BA4001C52D1
:041A90008F0A8D0B21
:101A940074FFF50CF50D121C6BAF0A121BA6121B7A
:101AA400CB920320032BAF0B121BA6121BCB92036A
:101AB40020031E121C6BE50A4401FF121BA6121B15
:101AC400CB920320030B121B59750C008F0D121CB3
:081AD40072121C52AE0CAF0DA2
:011ADC0022E7
:100F28000D0A0D0A436F6E6E6563742053434C209F
:100F3800546F2050332E320D0A436F6E6E65637402
:100F48002053444120546F2050332E330D0A436FF1
:100F58006E6E65637420454550524F4D3A2D41548D
:100F68003234433038204F72204D32344330380DFC
:100F78000A507265737320454E54455220546F20B1
:100F88005374617274204C6F6F706261636B0D0AE9
:100F9800000D0A4C6F6F704261636B20537461726D
:100FA8007465640D0A28507265737320454E544564
:100FB8005220466F7220436F6D65204F7574204F25
:100FC80066204C6F6F704261636B290D0A000D0A31
:100FD800000D0A506C6561736520576169742000C3
:100FE800205365630008080808080008080808086E
:100FF8000808080808080808000D0A456E74657294
:10100800204E657720436861723A0D0A000D0A493F
:101018007320457665727920436861726563746FE1
:1010280072205072696E74732050726F7065726CA2
:10103800792028792F6E293F3F0D0A000D0A506C40
:10104800656173652043686F6F73652028792F6E1B
:1010580029204F6E6C7921210D0A000D0A506C650C
:1010680061736520507265737320456E74657220D4
:101078004F6E6C790D0A000D0A0D0A4D616B6520E3
:10108800537572650D0A312E454550524F4D284112
:10109800543234433038204F72204D323443303884
:1010A8002920497320417661696C61626C65204F23
:1010B8006E20426F6172640D0A322E4561636820AA
:1010C8004C6167204F662049432041726520507269
:1010D8006F7065720D0A332E53434C20436F6E6E4A
:1010E80065637465642050726F7065726C79205402
:1010F8006F2050332E320D0A342E53444120436F53
:101108006E6E65637465642050726F7065726C7979
:1011180020546F2050332E330D0A416761696E00E9
:1015C400E4F5097BFF7A0F7928121BF9121C638F4B
:1015D40008E508640D60030216A67BFF7A0F79996B
:1015E400021668121C638F08E508B40D0B7BFF7AA2
:1015F4000F79D6121BF98072AB087D107FA0121BE5
:10160400807F327E00121B287D107FA0121A908FDB
:1016140009121C5B7BFF7A0F79D9121BF9E4F509D7
:10162400750805C3E5099406748094805027E5087D
:101634002430FF121C5B7BFF7A0F79E8121BF97FC1
:10164400E87E03121B287BFF7A0F79ED121BF91534
:1016540008050980CE7BFF7A0F79F3121BF97BFF13
:101664007A107901121BF90215E77BFF7A107915BC
:10167400802B121C638F08E50864796005E508B4C3
:1016840059097BFF7A0F79D6021BF9E508646E606D
:1016940019E508644E60137BFF7A107944121BF934
:1016A40080D07BFF7A10796380067BFF7A10797F84
:0616B400121BF90215C72C
:100CBC000D0A0D0A436F6E6E6563743A0D0A50335C
:100CCC002E342D50332E3720546F20434C4B2C4454
:100CDC004F55542C44492C435320284D4350333208
:100CEC003034204144432920526573706563746924
:100CFC00766C790D0A00416C736F20436F6E6E65D4
:100D0C006374204C43443A0D0A4C43442044302D28
:100D1C0044372054302050302D50370D0A52532078
:100D2C00546F2050322E300D0A525720546F2050E1
:100D3C00322E310D0A454E20546F2050322E320D7A
:100D4C000A0043686F6F7365204368616E6E656C53
:100D5C0020302F312F322F330D0A0043483A300008
:100D6C0043483A310043483A32004C4947485420F2
:100D7C00494E54454E53495459000D0A506C656107
:100D8C00736520456E74657220302F312F322F33EE
:100D9C00204F6E6C790D0A000D0A53746172742029
:100DAC0054657374696E670D0A50726573732045D0
:100DBC004E54455220466F72204578697400537426
:100DCC006F70000D0A0D0A49732053656E736F72B4
:100DDC00204F75747075742053686F775570205060
:100DEC006172666563742028792F6E293F3F0D0A66
:100DFC0000507265737320456E7465722F416E7965
:100E0C004B657920466F7220455849540D0A507233
:100E1C00657373205220546F20436865636B2041C7
:100E2C006E6F7468657220436868616E6E656C0DD8
:100E3C000A000D0A000D0A4D616B65537572650D44
:100E4C000A312E436865636B2045616368204C61F1
:100E5C0067204F66204D4350333230342050726F30
:100E6C007065720D0A322E436F6E6E656374696F16
:100E7C006E204F6620434C4B2C446F75742C446988
:100E8C006E2C43532050696E732049732050726F3F
:100E9C007065720D0A332E53656E736F7220436F3B
:100EAC006E6E656374656420546F20526967687454
:100EBC00204368616E6E656C0D0A342E49662050B5
:100ECC006F74656E74696F6D6574657220497320FB
:100EDC00436F6E6E65637465642041742043686172
:100EEC006E6E656C2C536574204974205A65726F54
:100EFC002046697273740D0A416761696E20000D9A
:100F0C000A506C656173652043686F6F73652028A8
:0C0F1C00792F6E29204F6E6C790D0A00B1
:021C8100C1029E
:10112800E4F508F5097F0C121C487BFF7A0C79BCA2
:10113800121BF97BFF7A0D79020213067BFF7A0DE9
:10114800794E8067121C638F0AE50AB430127BFF60
:101158007A0D7967120010E4F50BC200C2018050C5
:10116800E50AB431127BFF7A0D796C120010750B09
:1011780001D200C2018039E50AB432127BFF7A0D30
:101188007971120010750B02C200D2018022E50AA3
:10119800B433127BFF7A0D7976120010750B03D2E7
:1011A80000D201800B7BFF7A0D7986121BF980949F
:1011B8007BFF7A0D79A4121BF9121C79C202C2B7FF
:1011C800C2B4D2B6D2B4C2B4D2B6D2B4C2B4D2B611
:1011D800D2B4C2B4A20192B6D2B4C2B4A20092B63A
:1011E800D2B4C2B4D2B6D2B4C2B4D2B6D2B47D0BE1
:1011F800ED3395E0C364809480401FC2B430B515C8
:101208007E007401A805088005C333CE33CED8F913
:101218004209EE4208D2B41D80D67FC0121C487F16
:10122800047E00121B28D2B7E50B64036025AE08C4
:10123800AF097C007D05120BBEAC06AD07E4120AAF
:10124800EB7B007AF0797F78451209D01216BA7FC5
:10125800568024E50B64037028AC08AD09120AEB2C
:101268007BCD7ACC792378421209D0120B248E08D0
:101278008F09121A3B7F25121BEF7F647E00121B19
:1012880028E4F508F5092002030211C67F01121CA3
:10129800487BFF7A0D79CA1200107FE87E03121B83
:1012A800287F01121C48C202C2ACC2AF7BFF7A0D74
:1012B80079CF8056121C638F0AE50A64796005E5C8
:1012C8000AB459297BFF7A0D79FD121BF9121C63A8
:1012D8008F0AE50A64727003021144E50A645270C9
:1012E800030211447BFF7A0E793E021BF9E50A647A
:1012F8004E6005E50AB46E0C7BFF7A0E7941121B2D
:0F130800F90211447BFF7A0F790B121BF980A5B4
:1007CF00020B90E86480F8E933E83360110460F0BD
:1007DF00ED33EC337009E8FCE9FDEAFEEBFF220490
:1007EF0060DED3EB9FEA9EE99DE8C2E78CF0C2F78B
:1007FF0095F0400CE8CCF8E9CDF9EACEFAEBCFFB57
:10080F00120B5B85D0F05804700320D5B3E8047049
:10081F00075002B2D5020B9A92D5EC0460F7E4CCE4
:10082F00C0E0C398F8603B94186008400DD0E0FB1F
:10083F00020B72E4FBFAC9FC8028E830E406E4C935
:10084F00FBE4CAFCE830E305E4C9CACBFCE8540773
:10085F006010F8C3E913F9EA13FAEB13FBEC13FC7E
:10086F00D8F130F52FC3E49CFCEF9BFFEE9AFEED21
:10087F0099FDD0E0FBEF4E4D4C701222DB03020BC3
:10088F0097EC2CFCEF33FFEE33FEED33FDED30E74D
:10089F00EB020B72EF2BFFEE3AFEED39FDD0E0FBD2
:1008AF0050130BBB0003020B9AED13FDEE13FEEF7B
:0808BF0013FFEC13FC020B72A5
:1008C700EC4D6011E8497017ED33EC3304600DE42B
:1008D700FCFFFEFD22E933E8330470F8020B9012A7
:1008E7000B5B58046009E4CC2481500628500902A8
:1008F7000B9A284003020B97C0E0EB4A7044B9807B
:1009070006D0E0FB020B86EF4E701CBD8008EBFFA4
:10091700EAFEE9FD80EBE98DF0A4FEE5F00209B0FF
:10092700E9CDF9EAFEEBFFEF89F0A4FCE5F0CE890B
:10093700F0A42EFFE435F0CD89F0A42DFEE435F0C8
:100947008067EF4E7005BD80D780C3EF8BF0A4ACF6
:10095700F0EE8BF0A42CFCE435F0F8EF8AF0A42C31
:10096700E5F038FCE433CB8DF0A42CFCE5F03BF844
:10097700EE8AF0A42CFCE5F038F8E433CF89F0A434
:100987002CFCE5F038CF3400CE89F0A42FFFE5F03A
:100997003EFEE433C98DF0A42EFEE5F039CD8AF092
:1009A700A42FFFE5F03EFEE43DFD33D0E0FB50070A
:1009B7000BBB000F020B9AEC2CFCEF33FFEE33FE60
:0609C700ED33FD020B728E
:1009CD00020B9AEC5D046005E859047003020B906C
:1009DD00120B5B580460F6EC4860F2EC7004FDFEFF
:1009ED00FF22C860DB2481C85009C39860025006FD
:1009FD00020B979850CAF582E9294B4A7005AB82D4
:100A0D00020B8675F0007C1A7880C3EF9BEE9AED91
:100A1D0099400DC3EF9BFFEE9AFEED99FDE842F074
:100A2D00DC23ACF0D0E0FFD0E0FED0E0FDAB8220C7
:100A3D00E7101BEB60BAEC2CFCEF33FFEE33FEED51
:100A4D0033FD020B72E803F830E705C0F075F000D6
:100A5D00EF2FFFEE33FEED33FD40B830E7C280AA35
:100A6D0074F8CC6480CCC86480C8F58204604FC330
:100A7D00EB9FF5F0EA9E42F0E99D42F0E89C45F0CF
:100A8D00603C501DE5825FFFE582D313CB5BCBF459
:100A9D002B5582FB50280ABA002409B90020088082
:100AAD001DE5825BFBE582D313CF5FCFF4C3132F1C
:100ABD005582FF50090EBE00050DBD00010CC3EBA4
:100ACD009FF5F0EA9E42F0E99D42F0E89C45F0600A
:090ADD0007CC4820E701B3EC222C
:100AE60075F020800E75F010800575F0087D007E8B
:100AF600007F003392D530D503120C06EC3340103C
:100B0600EF33FFEE33FEED33FDEC33FCD5F0ED2293
:0E0B1600E5F0247EA2D513CC92E7CDCEFF22CF
:100B2400EDD2E7CD33EC3392D524814006E4FFFEC9
:100B3400FDFC22FCE4CFCECDCC24E0501174FF8028
:100B4400EDC3CC13CCCD13CDCE13CECF13CF0470C5
:070B5400F030D5DE020C06B3
:100B5B00E9D2E7C933E833F892D5EDD2E7CD33ECE0
:070B6B0033FC5002B2D52259
:100B7200EC30E7100FBF000C0EBE00080DBD0004E4
:100B82000BEB6014A2D5EB13FCED92E7FD2274FF90
:100B9200FCFDFEFF22E480F8A2D574FF13FC7D80E9
:030BA200E480EFFD
:030000000218776C
:0C187700787FE4F6D8FD7581200218BED1
:100BA500BB010689828A83E0225002E722BBFE024E
:090BB500E32289828A83E4932281
:100BBE00EF8DF0A4A8F0CF8CF0A428CE8DF0A42E4B
:020BCE00FE2205
:100BD000C2D5EC30E709B2D5E4C39DFDE49CFCEE40
:100BE00030E715B2D5E4C39FFFE49EFE120C67C345
:100BF000E49DFDE49CFC8003120C6730D507C3E440
:060C00009FFFE49EFE22AE
:0E0C0600C3E49FFFE49EFEE49DFDE49CFC22FF
:100C1400D083D082F8E4937012740193700DA3A36F
:100C240093F8740193F5828883E473740293686083
:060C3400EFA3A3A380DF83
:100C3A00D083D082F8E4937012740193700DA3A349
:100C4A0093F8740193F5828883E473740293B5F080
:0D0C5A00067403936860E9A3A3A3A380D8E8
:10188300021979E493A3F8E493A34003F68001F2E9
:1018930008DFF48029E493A3F85407240CC8C33366
:1018A300C4540F4420C8834004F456800146F6DF35
:1018B300E4800B0102040810204080901C81E47E28
:1018C300019360BCA3FF543F30E509541FFEE4932A
:1018D300A360010ECF54C025E060A840B8E493A3F1
:1018E300FAE493A3F8E493A3C8C582C8CAC583CA1C
:1018F300F0A3C8C582C8CAC583CADFE9DEE780BED4
:011C83000060
:100C6700BC000BBE0029EF8DF084FFADF022E4CC71
:100C7700F875F008EF2FFFEE33FEEC33FCEE9DEC3A
:100C8700984005FCEE9DFE0FD5F0E9E4CEFD22ED80
:100C9700F8F5F0EE8420D21CFEADF075F008EF2FCA
:100CA700FFED33FD4007985006D5F0F222C398FDBB
:050CB7000FD5F0EA2258
:00000001FF
